:100000000C942A000C9434000C9434000C943400AA
:100010000C9434000C9434000C9434000C94340090
:100020000C9434000C9434000C9434000C94340080
:100030000C9434000C9434000C9434000C94340070
:100040000C9434000C9434000C9434000C94340060
:100050000C94340011241FBECFE5D8E0DEBFCDBF25
:100060000E9436000C9476000C940000CF93DF932E
:10007000CDB7DEB780E884BF84BF17BA8FEF8ABBE5
:1000800084BB8DB79EB792500FB6F8949EBF0FBE3B
:100090008DBFEDB7FEB731969F01ADB7BEB7AF5F6D
:1000A000BE4F8FEF9FEF8D939C93ADB7BEB7129667
:1000B0001C921E9211978AE49BEC9383828380E0CA
:1000C0009FEF958384838FEF90E0978386838FE003
:1000D0009FE091878087E6B3F0E0EE0FFF1FE20F0D
:1000E000F31F908181819BBB85BBF5CFF894FFCF37
:00000001FF
