:100000000C942A000C9434000C9434000C943400AA
:100010000C9434000C9434000C9434000C94340090
:100020000C9434000C9434000C9434000C94340080
:100030000C9434000C9434000C9434000C94340070
:100040000C9434000C9434000C9434000C94340060
:100050000C94340011241FBECFE5D8E0DEBFCDBF25
:100060000E9436000C949E000C940000CF93DF9306
:10007000CDB7DEB760970FB6F894DEBF0FBECDBF29
:1000800011BA17BA8FEF8ABB14BA1BBA40E050E01E
:10009000E6B3EF7086B382958F70A0B3AF70B3B341
:1000A000BF7010B315FB112710F900B306FB002732
:1000B00000F960B3661F6627661FF0E0EE0FFF1FB2
:1000C00021E030E02C0F3D1FE20FF31F708190E024
:1000D000FC01EE0FFF1FE20FF31F20813181332758
:1000E00022953295307F3227207F3227272B2BBB5A
:1000F000452B09F56130F9F41123E9F001110DC028
:10010000880F991FE1E0F0E0EC0FFD1FE80FF91FE9
:100110008B2F90E0918380830EC0EA2FF0E0EE0FEA
:10012000FF1F81E090E08C0F9D1FE80FF91F8B2FC0
:1001300090E091838083462F50E0AACFF894FFCFC0
:00000001FF
