:100000000C942A000C9434000C9434000C943400AA
:100010000C9434000C9434000C9434000C94340090
:100020000C9434000C9434000C9434000C94340080
:100030000C9434000C9434000C9434000C94340070
:100040000C9434000C9434000C9434000C94340060
:100050000C94340011241FBECFE5D8E0DEBFCDBF25
:100060000E9436000C9469000C94000011BA17BA73
:100070008FEF8ABB14BA1BBA40E050E0E6B373B30B
:1000800080B3982F9F7080B3881F8827881F60B324
:1000900020B325FB222720F930B33295317066FD5D
:1000A00010C0211102C0332351F0983020F09E0F70
:1000B00071EF790F06C09E0F71E0790F02C071E0F9
:1000C0007E0F452B19F4813009F47BBB482F50E09B
:0600D000D5CFF894FFCF2C
:00000001FF
