S00F000050726F6772616D2E737265633D
S11300000C942A000C9434000C9434000C943400A6
S11300100C9434000C9434000C9434000C9434008C
S11300200C9434000C9434000C9434000C9434007C
S11300300C9434000C9434000C9434000C9434006C
S11300400C9434000C9434000C9434000C9434005C
S11300500C94340011241FBECFE5D8E0DEBFCDBF21
S11300600E9436000C9447000C94000080E884BF82
S113007084BF17BA11BA8FEF8ABB84BB81E08BBBF4
S113008086B380B380B380B381E08BBBF9CFF8949F
S1050090FFCF9C
S9030000FC
