:100000000C942A000C9434000C9434000C943400AA
:100010000C9434000C9434000C9434000C94340090
:100020000C9434000C9434000C9434000C94340080
:100030000C9434000C9434000C9434000C94340070
:100040000C9434000C9434000C9434000C94340060
:100050000C94340011241FBECFE5D8E0DEBFCDBF25
:100060000E9436000C9477000C94000017BA11BA65
:100070008FEF8ABB84BB86B382958F7026B3422FE5
:100080004F7090B3977011F4840F24C0913029F40D
:1000900001C0880F4A95EAF71DC0923011F4841B05
:1000A00019C0933011F4842B15C0943011F48423BB
:1000B00011C0953049F4282F30E0C90102C0959550
:1000C00087954A95E2F706C0963019F4842B8095FF
:1000D00001C080E0982F9295907F9BBB9BB3987056
:1000E0009BBB8F7041F68BB388608BBBC4CFF894F9
:0200F000FFCF40
:00000001FF
