:100000000C942A000C9434000C9434000C943400AA
:100010000C9434000C9434000C9434000C94340090
:100020000C9434000C9434000C9434000C94340080
:100030000C9434000C9434000C9434000C94340070
:100040000C9434000C9434000C9434000C94340060
:100050000C94340011241FBECFE5D8E0DEBFCDBF25
:100060000E9436000C94B2000C9400008FEF87BB06
:1000700081BB1ABA14BA86B3982F92959F7086B333
:10008000382F3F7080B3282F22952F7050B380B344
:10009000877053FF2EC0811103C0492F430F56C0F4
:1000A000813031F4492F01C0440F3A95EAF74EC030
:1000B000823019F4492F431B49C0833019F4492F6A
:1000C000432B44C0843019F4492F43233FC085306B
:1000D00049F4892F90E002C0959587953A95E2F70B
:1000E000482F34C0863091F5892F832B482F4095B7
:1000F0002DC0811103C0492F420F28C0813031F437
:10010000492F01C0440F2A95EAF720C0823019F424
:10011000492F421B1BC0833019F4492F422B16C0B4
:10012000843019F4492F422311C0853049F4892FB6
:1001300090E002C0959587952A95E2F7482F06C072
:10014000863021F4892F822B482F4095842F829569
:10015000807F8BBB842F8F7009F08DCF8BB388602D
:080160008BBB89CFF894FFCF9F
:00000001FF
