S0120000446174614D656D6F72792E737265631F
S11300000C942A000C9434000C9434000C943400A6
S11300100C9434000C9434000C9434000C9434008C
S11300200C9434000C9434000C9434000C9434007C
S11300300C9434000C9434000C9434000C9434006C
S11300400C9434000C9434000C9434000C9434005C
S11300500C94340011241FBECFE5D8E0DEBFCDBF21
S11300600E9436000C9486000C940000CF93DF931A
S1130070CDB7DEB7DA950FB6F894DEBF0FBECDBFAD
S113008080E884BF84BF17BA11BA8FEF8ABB8EEFA2
S113009084BB81E08BBB80E090E008C0E1E0F0E04D
S11300A0EC0FFD1FE80FF91F108201968F3F910599
S11300B0A9F3A4F360E070E086B3582F5F708295D3
S11300C08F7040B390B392FB992790F920B3221F0D
S11300D02227221F30E041FF0CC0672B51F421304E
S11300E0310539F4E1E0F0E0EC0FFD1FE80FF11DFC
S11300F05083E1E0F0E0EC0FFD1FE80FF11D4081BB
S1130100913009F4842F8BBBB901D6CFF894FFCF7B
S9030000FC
