S01E0000446174614D656D6F72795F776974686F75745F6D75782E73726563E7
S11300000C942A000C9434000C9434000C943400A6
S11300100C9434000C9434000C9434000C9434008C
S11300200C9434000C9434000C9434000C9434007C
S11300300C9434000C9434000C9434000C9434006C
S11300400C9434000C9434000C9434000C9434005C
S11300500C94340011241FBECFE5D8E0DEBFCDBF21
S11300600E9436000C9480000C940000CF93DF9320
S1130070CDB7DEB7DA950FB6F894DEBF0FBECDBFAD
S113008080E884BF84BF17BA11BA8FEF8ABB8EEFA2
S113009084BB81E08BBB80E090E008C0E1E0F0E04D
S11300A0EC0FFD1FE80FF91F108201968F3F910599
S11300B0A9F3A4F340E050E086B3682F6F70282FB3
S11300C022952F7030B380B3881F8827881F90E053
S11300D031FF0CC0452B51F48130910539F4E1E036
S11300E0F0E0EC0FFD1FE20FF11D6083E1E0F0E0B2
S11300F0EC0FFD1FE20FF11D20812BBBAC01DCCF07
S1070100F894FFCF9D
S9030000FC
